{
  "_format": "hh-sol-artifact-1",
  "contractName": "Rudis",
  "sourceName": "contracts/Rudis.sol",
  "abi": [
    {
      "inputs": [
        {
          "internalType": "uint256",
          "name": "_id",
          "type": "uint256"
        },
        {
          "internalType": "string",
          "name": "_organization",
          "type": "string"
        }
      ],
      "name": "buyPatent",
      "outputs": [],
      "stateMutability": "payable",
      "type": "function"
    },
    {
      "inputs": [
        {
          "internalType": "uint256",
          "name": "",
          "type": "uint256"
        }
      ],
      "name": "collaborations",
      "outputs": [
        {
          "internalType": "string",
          "name": "title",
          "type": "string"
        },
        {
          "internalType": "uint256",
          "name": "id",
          "type": "uint256"
        },
        {
          "internalType": "string",
          "name": "description",
          "type": "string"
        },
        {
          "internalType": "string",
          "name": "uri",
          "type": "string"
        },
        {
          "internalType": "address",
          "name": "admin",
          "type": "address"
        },
        {
          "internalType": "string",
          "name": "profile",
          "type": "string"
        }
      ],
      "stateMutability": "view",
      "type": "function"
    },
    {
      "inputs": [
        {
          "internalType": "uint256",
          "name": "_id",
          "type": "uint256"
        },
        {
          "internalType": "string",
          "name": "_description",
          "type": "string"
        }
      ],
      "name": "contributeToResearch",
      "outputs": [],
      "stateMutability": "nonpayable",
      "type": "function"
    },
    {
      "inputs": [
        {
          "internalType": "string",
          "name": "_name",
          "type": "string"
        },
        {
          "internalType": "string",
          "name": "_description",
          "type": "string"
        },
        {
          "internalType": "string",
          "name": "_uri",
          "type": "string"
        },
        {
          "internalType": "string",
          "name": "_profile",
          "type": "string"
        }
      ],
      "name": "createCollaboration",
      "outputs": [],
      "stateMutability": "nonpayable",
      "type": "function"
    },
    {
      "inputs": [
        {
          "internalType": "string",
          "name": "_title",
          "type": "string"
        },
        {
          "internalType": "string",
          "name": "_description",
          "type": "string"
        },
        {
          "internalType": "string",
          "name": "_organization",
          "type": "string"
        },
        {
          "internalType": "string",
          "name": "_uri",
          "type": "string"
        },
        {
          "internalType": "address",
          "name": "_admin",
          "type": "address"
        },
        {
          "internalType": "string",
          "name": "_profile",
          "type": "string"
        }
      ],
      "name": "createPatent",
      "outputs": [],
      "stateMutability": "nonpayable",
      "type": "function"
    },
    {
      "inputs": [
        {
          "internalType": "uint256",
          "name": "_id",
          "type": "uint256"
        }
      ],
      "name": "crowdFund",
      "outputs": [],
      "stateMutability": "payable",
      "type": "function"
    },
    {
      "inputs": [],
      "name": "getCollaborations",
      "outputs": [
        {
          "components": [
            {
              "internalType": "string",
              "name": "title",
              "type": "string"
            },
            {
              "internalType": "uint256",
              "name": "id",
              "type": "uint256"
            },
            {
              "internalType": "address[]",
              "name": "collaborators",
              "type": "address[]"
            },
            {
              "internalType": "string",
              "name": "description",
              "type": "string"
            },
            {
              "internalType": "string",
              "name": "uri",
              "type": "string"
            },
            {
              "internalType": "address",
              "name": "admin",
              "type": "address"
            },
            {
              "internalType": "string",
              "name": "profile",
              "type": "string"
            }
          ],
          "internalType": "struct Rudis.Collaboration[]",
          "name": "",
          "type": "tuple[]"
        }
      ],
      "stateMutability": "view",
      "type": "function"
    },
    {
      "inputs": [],
      "name": "getPatentsOnsale",
      "outputs": [
        {
          "components": [
            {
              "internalType": "uint256",
              "name": "id",
              "type": "uint256"
            },
            {
              "internalType": "uint256",
              "name": "patentId",
              "type": "uint256"
            },
            {
              "internalType": "string",
              "name": "name",
              "type": "string"
            },
            {
              "internalType": "uint256",
              "name": "amount",
              "type": "uint256"
            },
            {
              "internalType": "address",
              "name": "owner",
              "type": "address"
            },
            {
              "internalType": "string",
              "name": "profile",
              "type": "string"
            }
          ],
          "internalType": "struct Rudis.PatentSale[]",
          "name": "",
          "type": "tuple[]"
        }
      ],
      "stateMutability": "view",
      "type": "function"
    },
    {
      "inputs": [],
      "name": "getResearch",
      "outputs": [
        {
          "components": [
            {
              "internalType": "string",
              "name": "title",
              "type": "string"
            },
            {
              "internalType": "uint256",
              "name": "id",
              "type": "uint256"
            },
            {
              "internalType": "string",
              "name": "description",
              "type": "string"
            },
            {
              "internalType": "address",
              "name": "admin",
              "type": "address"
            },
            {
              "internalType": "uint256",
              "name": "funding",
              "type": "uint256"
            },
            {
              "internalType": "string",
              "name": "organization",
              "type": "string"
            },
            {
              "internalType": "string",
              "name": "researchURI",
              "type": "string"
            },
            {
              "internalType": "string",
              "name": "profile",
              "type": "string"
            }
          ],
          "internalType": "struct Rudis.Research[]",
          "name": "",
          "type": "tuple[]"
        }
      ],
      "stateMutability": "view",
      "type": "function"
    },
    {
      "inputs": [
        {
          "internalType": "uint256",
          "name": "_id",
          "type": "uint256"
        }
      ],
      "name": "getResearch",
      "outputs": [
        {
          "components": [
            {
              "internalType": "string",
              "name": "title",
              "type": "string"
            },
            {
              "internalType": "uint256",
              "name": "id",
              "type": "uint256"
            },
            {
              "internalType": "string",
              "name": "description",
              "type": "string"
            },
            {
              "internalType": "address",
              "name": "admin",
              "type": "address"
            },
            {
              "internalType": "uint256",
              "name": "funding",
              "type": "uint256"
            },
            {
              "internalType": "string",
              "name": "organization",
              "type": "string"
            },
            {
              "internalType": "string",
              "name": "researchURI",
              "type": "string"
            },
            {
              "internalType": "string",
              "name": "profile",
              "type": "string"
            }
          ],
          "internalType": "struct Rudis.Research",
          "name": "",
          "type": "tuple"
        }
      ],
      "stateMutability": "view",
      "type": "function"
    },
    {
      "inputs": [
        {
          "internalType": "address",
          "name": "_address",
          "type": "address"
        }
      ],
      "name": "getResearcher",
      "outputs": [
        {
          "components": [
            {
              "internalType": "string",
              "name": "name",
              "type": "string"
            },
            {
              "internalType": "string",
              "name": "email",
              "type": "string"
            },
            {
              "internalType": "address",
              "name": "researcherAddress",
              "type": "address"
            }
          ],
          "internalType": "struct Rudis.Researcher",
          "name": "",
          "type": "tuple"
        }
      ],
      "stateMutability": "view",
      "type": "function"
    },
    {
      "inputs": [
        {
          "internalType": "uint256",
          "name": "_id",
          "type": "uint256"
        }
      ],
      "name": "joinCollaboration",
      "outputs": [],
      "stateMutability": "nonpayable",
      "type": "function"
    },
    {
      "inputs": [],
      "name": "patentSaleCount",
      "outputs": [
        {
          "internalType": "uint256",
          "name": "",
          "type": "uint256"
        }
      ],
      "stateMutability": "view",
      "type": "function"
    },
    {
      "inputs": [
        {
          "internalType": "uint256",
          "name": "",
          "type": "uint256"
        }
      ],
      "name": "patentSales",
      "outputs": [
        {
          "internalType": "uint256",
          "name": "id",
          "type": "uint256"
        },
        {
          "internalType": "uint256",
          "name": "patentId",
          "type": "uint256"
        },
        {
          "internalType": "string",
          "name": "name",
          "type": "string"
        },
        {
          "internalType": "uint256",
          "name": "amount",
          "type": "uint256"
        },
        {
          "internalType": "address",
          "name": "owner",
          "type": "address"
        },
        {
          "internalType": "string",
          "name": "profile",
          "type": "string"
        }
      ],
      "stateMutability": "view",
      "type": "function"
    },
    {
      "inputs": [
        {
          "internalType": "string",
          "name": "_name",
          "type": "string"
        },
        {
          "internalType": "string",
          "name": "_email",
          "type": "string"
        }
      ],
      "name": "register",
      "outputs": [],
      "stateMutability": "nonpayable",
      "type": "function"
    },
    {
      "inputs": [],
      "name": "researchCount",
      "outputs": [
        {
          "internalType": "uint256",
          "name": "",
          "type": "uint256"
        }
      ],
      "stateMutability": "view",
      "type": "function"
    },
    {
      "inputs": [
        {
          "internalType": "address",
          "name": "",
          "type": "address"
        }
      ],
      "name": "researchers",
      "outputs": [
        {
          "internalType": "string",
          "name": "name",
          "type": "string"
        },
        {
          "internalType": "string",
          "name": "email",
          "type": "string"
        },
        {
          "internalType": "address",
          "name": "researcherAddress",
          "type": "address"
        }
      ],
      "stateMutability": "view",
      "type": "function"
    },
    {
      "inputs": [
        {
          "internalType": "uint256",
          "name": "",
          "type": "uint256"
        }
      ],
      "name": "researches",
      "outputs": [
        {
          "internalType": "string",
          "name": "title",
          "type": "string"
        },
        {
          "internalType": "uint256",
          "name": "id",
          "type": "uint256"
        },
        {
          "internalType": "string",
          "name": "description",
          "type": "string"
        },
        {
          "internalType": "address",
          "name": "admin",
          "type": "address"
        },
        {
          "internalType": "uint256",
          "name": "funding",
          "type": "uint256"
        },
        {
          "internalType": "string",
          "name": "organization",
          "type": "string"
        },
        {
          "internalType": "string",
          "name": "researchURI",
          "type": "string"
        },
        {
          "internalType": "string",
          "name": "profile",
          "type": "string"
        }
      ],
      "stateMutability": "view",
      "type": "function"
    },
    {
      "inputs": [
        {
          "internalType": "uint256",
          "name": "_id",
          "type": "uint256"
        },
        {
          "internalType": "uint256",
          "name": "_amount",
          "type": "uint256"
        }
      ],
      "name": "sellPatent",
      "outputs": [],
      "stateMutability": "nonpayable",
      "type": "function"
    }
  ],
  "bytecode": "0x608060405234801561001057600080fd5b50612f23806100206000396000f3fe6080604052600436106101145760003560e01c806375febcb2116100a0578063e3e02ba711610064578063e3e02ba71461034c578063e6146ec714610379578063e6523d051461038c578063e757921c146103ac578063e7eba4c2146103cc57600080fd5b806375febcb21461026a5780637e6fe97c146102b85780638b425197146102ea57806396814a101461030a578063c355cc541461032a57600080fd5b80632e128e60116100e75780632e128e60146101ac5780633ffbd47f146101ce5780634b254f68146101ee5780635f7d070414610220578063620d744d1461025457600080fd5b806301bc237d1461011957806303edeabb1461015157806306ded1fa1461017557806325f63feb14610197575b600080fd5b34801561012557600080fd5b506101396101343660046124be565b6103f9565b60405161014893929190612526565b60405180910390f35b34801561015d57600080fd5b5061016760065481565b604051908152602001610148565b34801561018157600080fd5b5061018a610534565b6040516101489190612564565b6101aa6101a53660046126c1565b610794565b005b3480156101b857600080fd5b506101c16108f5565b60405161014891906127be565b3480156101da57600080fd5b506101aa6101e9366004612820565b610cbc565b3480156101fa57600080fd5b5061020e61020936600461287a565b610d36565b60405161014896959493929190612893565b34801561022c57600080fd5b5061024061023b36600461287a565b610f99565b604051610148989796959493929190612902565b34801561026057600080fd5b5061016760025481565b34801561027657600080fd5b506101aa61028536600461287a565b60009081526003602090815260408220600201805460018101825590835291200180546001600160a01b03191633179055565b3480156102c457600080fd5b506102d86102d336600461287a565b61128f565b60405161014896959493929190612991565b3480156102f657600080fd5b506101aa6103053660046126c1565b61135f565b34801561031657600080fd5b506101aa6103253660046129d8565b611443565b34801561033657600080fd5b5061033f611595565b6040516101489190612a85565b34801561035857600080fd5b5061036c61036736600461287a565b611962565b6040516101489190612bb5565b6101aa61038736600461287a565b611c8f565b34801561039857600080fd5b506101aa6103a7366004612bc8565b611df7565b3480156103b857600080fd5b506101aa6103c7366004612bea565b6121e7565b3480156103d857600080fd5b506103ec6103e73660046124be565b612281565b6040516101489190612ccb565b60006020819052908152604090208054819061041490612d26565b80601f016020809104026020016040519081016040528092919081815260200182805461044090612d26565b801561048d5780601f106104625761010080835404028352916020019161048d565b820191906000526020600020905b81548152906001019060200180831161047057829003601f168201915b5050505050908060010180546104a290612d26565b80601f01602080910402602001604051908101604052809291908181526020018280546104ce90612d26565b801561051b5780601f106104f05761010080835404028352916020019161051b565b820191906000526020600020905b8154815290600101906020018083116104fe57829003601f168201915b505050600290930154919250506001600160a01b031683565b6060600060065467ffffffffffffffff8111156105535761055361261e565b6040519080825280602002602001820160405280156105c657816020015b6105b36040518060c001604052806000815260200160008152602001606081526020016000815260200160006001600160a01b03168152602001606081525090565b8152602001906001900390816105715790505b50905060015b600654811161078e576000600560008381526020019081526020016000209050806040518060c0016040529081600082015481526020016001820154815260200160028201805461061c90612d26565b80601f016020809104026020016040519081016040528092919081815260200182805461064890612d26565b80156106955780601f1061066a57610100808354040283529160200191610695565b820191906000526020600020905b81548152906001019060200180831161067857829003601f168201915b50505091835250506003820154602082015260048201546001600160a01b031660408201526005820180546060909201916106cf90612d26565b80601f01602080910402602001604051908101604052809291908181526020018280546106fb90612d26565b80156107485780601f1061071d57610100808354040283529160200191610748565b820191906000526020600020905b81548152906001019060200180831161072b57829003601f168201915b5050505050815250508360018461075f9190612d70565b8151811061076f5761076f612d89565b602002602001018190525050808061078690612d9f565b9150506105cc565b50919050565b600082815260056020526040808220600481015491519092916001600160a01b03169034908381818185875af1925050503d80600081146107f1576040519150601f19603f3d011682016040523d82523d6000602084013e6107f6565b606091505b505090508061083e5760405162461bcd60e51b815260206004820152600f60248201526e141d5c98da185cd94811985a5b1959608a1b60448201526064015b60405180910390fd5b6000848152600560205260408120818155600181018290559061086460028301826123fe565b6000600383018190556004830180546001600160a01b031916905561088d9060058401906123fe565b50506006805490600061089f83612db8565b9091555050600482018054336001600160a01b031991821681179092556001808501546000908152602091909152604090206003810180549092169092179055600581016108ed8582612e1a565b505050505050565b6060600060025467ffffffffffffffff8111156109145761091461261e565b60405190808252806020026020018201604052801561094d57816020015b61093a61243b565b8152602001906001900390816109325790505b50905060015b600254811161078e576000818152600160205260409081902081516101008101909252805490919082908290829061098a90612d26565b80601f01602080910402602001604051908101604052809291908181526020018280546109b690612d26565b8015610a035780601f106109d857610100808354040283529160200191610a03565b820191906000526020600020905b8154815290600101906020018083116109e657829003601f168201915b5050505050815260200160018201548152602001600282018054610a2690612d26565b80601f0160208091040260200160405190810160405280929190818152602001828054610a5290612d26565b8015610a9f5780601f10610a7457610100808354040283529160200191610a9f565b820191906000526020600020905b815481529060010190602001808311610a8257829003601f168201915b505050918352505060038201546001600160a01b0316602082015260048201546040820152600582018054606090920191610ad990612d26565b80601f0160208091040260200160405190810160405280929190818152602001828054610b0590612d26565b8015610b525780601f10610b2757610100808354040283529160200191610b52565b820191906000526020600020905b815481529060010190602001808311610b3557829003601f168201915b50505050508152602001600682018054610b6b90612d26565b80601f0160208091040260200160405190810160405280929190818152602001828054610b9790612d26565b8015610be45780601f10610bb957610100808354040283529160200191610be4565b820191906000526020600020905b815481529060010190602001808311610bc757829003601f168201915b50505050508152602001600782018054610bfd90612d26565b80601f0160208091040260200160405190810160405280929190818152602001828054610c2990612d26565b8015610c765780601f10610c4b57610100808354040283529160200191610c76565b820191906000526020600020905b815481529060010190602001808311610c5957829003601f168201915b50505050508152505083600184610c8d9190612d70565b81518110610c9d57610c9d612d89565b6020026020010181905250508080610cb490612d9f565b915050610953565b604080516060810182528381526020808201849052338284018190526000908152908190529190912081518190610cf39082612e1a565b5060208201516001820190610d089082612e1a565b5060409190910151600290910180546001600160a01b0319166001600160a01b039092169190911790555050565b600360205260009081526040902080548190610d5190612d26565b80601f0160208091040260200160405190810160405280929190818152602001828054610d7d90612d26565b8015610dca5780601f10610d9f57610100808354040283529160200191610dca565b820191906000526020600020905b815481529060010190602001808311610dad57829003601f168201915b505050505090806001015490806003018054610de590612d26565b80601f0160208091040260200160405190810160405280929190818152602001828054610e1190612d26565b8015610e5e5780601f10610e3357610100808354040283529160200191610e5e565b820191906000526020600020905b815481529060010190602001808311610e4157829003601f168201915b505050505090806004018054610e7390612d26565b80601f0160208091040260200160405190810160405280929190818152602001828054610e9f90612d26565b8015610eec5780601f10610ec157610100808354040283529160200191610eec565b820191906000526020600020905b815481529060010190602001808311610ecf57829003601f168201915b505050600584015460068501805494956001600160a01b03909216949193509150610f1690612d26565b80601f0160208091040260200160405190810160405280929190818152602001828054610f4290612d26565b8015610f8f5780601f10610f6457610100808354040283529160200191610f8f565b820191906000526020600020905b815481529060010190602001808311610f7257829003601f168201915b5050505050905086565b600160205260009081526040902080548190610fb490612d26565b80601f0160208091040260200160405190810160405280929190818152602001828054610fe090612d26565b801561102d5780601f106110025761010080835404028352916020019161102d565b820191906000526020600020905b81548152906001019060200180831161101057829003601f168201915b50505050509080600101549080600201805461104890612d26565b80601f016020809104026020016040519081016040528092919081815260200182805461107490612d26565b80156110c15780601f10611096576101008083540402835291602001916110c1565b820191906000526020600020905b8154815290600101906020018083116110a457829003601f168201915b505050506003830154600484015460058501805494956001600160a01b0390931694919350906110f090612d26565b80601f016020809104026020016040519081016040528092919081815260200182805461111c90612d26565b80156111695780601f1061113e57610100808354040283529160200191611169565b820191906000526020600020905b81548152906001019060200180831161114c57829003601f168201915b50505050509080600601805461117e90612d26565b80601f01602080910402602001604051908101604052809291908181526020018280546111aa90612d26565b80156111f75780601f106111cc576101008083540402835291602001916111f7565b820191906000526020600020905b8154815290600101906020018083116111da57829003601f168201915b50505050509080600701805461120c90612d26565b80601f016020809104026020016040519081016040528092919081815260200182805461123890612d26565b80156112855780601f1061125a57610100808354040283529160200191611285565b820191906000526020600020905b81548152906001019060200180831161126857829003601f168201915b5050505050905088565b600560205260009081526040902080546001820154600283018054929391926112b790612d26565b80601f01602080910402602001604051908101604052809291908181526020018280546112e390612d26565b80156113305780601f1061130557610100808354040283529160200191611330565b820191906000526020600020905b81548152906001019060200180831161131357829003601f168201915b5050505060038301546004840154600585018054949592946001600160a01b03909216935090610f1690612d26565b60008281526001602081905260408220015490036113b95760405162461bcd60e51b815260206004820152601760248201527614995cd9585c98da08191bd95cc81b9bdd08195e1a5cdd604a1b6044820152606401610835565b336000908152602081905260409020600201546001600160a01b03166114215760405162461bcd60e51b815260206004820152601960248201527f5265736561726368657220646f6573206e6f74206578697374000000000000006044820152606401610835565b60008281526001602052604090206002810161143d8382612e1a565b50505050565b600060045460016114549190612eda565b6000818152600360205260409020909150806114708782612e1a565b506005810180546001600160a01b03191633179055600181018290556003810161149a8682612e1a565b50600481016114a98582612e1a565b50600681016114b88482612e1a565b506004829055600281018054600181018255600091825260209091200180546001600160a01b0319163317905560058101546006820180546108ed928992899284928a926001600160a01b03919091169161151290612d26565b80601f016020809104026020016040519081016040528092919081815260200182805461153e90612d26565b801561158b5780601f106115605761010080835404028352916020019161158b565b820191906000526020600020905b81548152906001019060200180831161156e57829003601f168201915b50505050506121e7565b6060600060045467ffffffffffffffff8111156115b4576115b461261e565b60405190808252806020026020018201604052801561162e57816020015b61161b6040518060e00160405280606081526020016000815260200160608152602001606081526020016060815260200160006001600160a01b03168152602001606081525090565b8152602001906001900390816115d25790505b50905060015b600454811161078e5760008181526003602052604090819020815160e08101909252805490919082908290829061166a90612d26565b80601f016020809104026020016040519081016040528092919081815260200182805461169690612d26565b80156116e35780601f106116b8576101008083540402835291602001916116e3565b820191906000526020600020905b8154815290600101906020018083116116c657829003601f168201915b50505050508152602001600182015481526020016002820180548060200260200160405190810160405280929190818152602001828054801561174f57602002820191906000526020600020905b81546001600160a01b03168152600190910190602001808311611731575b5050505050815260200160038201805461176890612d26565b80601f016020809104026020016040519081016040528092919081815260200182805461179490612d26565b80156117e15780601f106117b6576101008083540402835291602001916117e1565b820191906000526020600020905b8154815290600101906020018083116117c457829003601f168201915b505050505081526020016004820180546117fa90612d26565b80601f016020809104026020016040519081016040528092919081815260200182805461182690612d26565b80156118735780601f1061184857610100808354040283529160200191611873565b820191906000526020600020905b81548152906001019060200180831161185657829003601f168201915b505050918352505060058201546001600160a01b031660208201526006820180546040909201916118a390612d26565b80601f01602080910402602001604051908101604052809291908181526020018280546118cf90612d26565b801561191c5780601f106118f15761010080835404028352916020019161191c565b820191906000526020600020905b8154815290600101906020018083116118ff57829003601f168201915b505050505081525050836001846119339190612d70565b8151811061194357611943612d89565b602002602001018190525050808061195a90612d9f565b915050611634565b61196a61243b565b600082815260016020526040908190208151610100810190925280548290829061199390612d26565b80601f01602080910402602001604051908101604052809291908181526020018280546119bf90612d26565b8015611a0c5780601f106119e157610100808354040283529160200191611a0c565b820191906000526020600020905b8154815290600101906020018083116119ef57829003601f168201915b5050505050815260200160018201548152602001600282018054611a2f90612d26565b80601f0160208091040260200160405190810160405280929190818152602001828054611a5b90612d26565b8015611aa85780601f10611a7d57610100808354040283529160200191611aa8565b820191906000526020600020905b815481529060010190602001808311611a8b57829003601f168201915b505050918352505060038201546001600160a01b0316602082015260048201546040820152600582018054606090920191611ae290612d26565b80601f0160208091040260200160405190810160405280929190818152602001828054611b0e90612d26565b8015611b5b5780601f10611b3057610100808354040283529160200191611b5b565b820191906000526020600020905b815481529060010190602001808311611b3e57829003601f168201915b50505050508152602001600682018054611b7490612d26565b80601f0160208091040260200160405190810160405280929190818152602001828054611ba090612d26565b8015611bed5780601f10611bc257610100808354040283529160200191611bed565b820191906000526020600020905b815481529060010190602001808311611bd057829003601f168201915b50505050508152602001600782018054611c0690612d26565b80601f0160208091040260200160405190810160405280929190818152602001828054611c3290612d26565b8015611c7f5780601f10611c5457610100808354040283529160200191611c7f565b820191906000526020600020905b815481529060010190602001808311611c6257829003601f168201915b5050505050815250509050919050565b60003411611cdf5760405162461bcd60e51b815260206004820152601860248201527f596f75206d7573742073656e6420736f6d6520657468657200000000000000006044820152606401610835565b6000818152600160208190526040822001549003611d395760405162461bcd60e51b815260206004820152601760248201527614995cd9585c98da08191bd95cc81b9bdd08195e1a5cdd604a1b6044820152606401610835565b604051600090309034908381818185875af1925050503d8060008114611d7b576040519150601f19603f3d011682016040523d82523d6000602084013e611d80565b606091505b5050905080611dc85760405162461bcd60e51b81526020600482015260146024820152732330b4b632b2103a379039b2b7321032ba3432b960611b6044820152606401610835565b60008281526001602052604081206004810154909190611de9903490612eda565b600490920191909155505050565b60006006546001611e089190612eda565b905060006001600085815260200190815260200160002060405180610100016040529081600082018054611e3b90612d26565b80601f0160208091040260200160405190810160405280929190818152602001828054611e6790612d26565b8015611eb45780601f10611e8957610100808354040283529160200191611eb4565b820191906000526020600020905b815481529060010190602001808311611e9757829003601f168201915b5050505050815260200160018201548152602001600282018054611ed790612d26565b80601f0160208091040260200160405190810160405280929190818152602001828054611f0390612d26565b8015611f505780601f10611f2557610100808354040283529160200191611f50565b820191906000526020600020905b815481529060010190602001808311611f3357829003601f168201915b505050918352505060038201546001600160a01b0316602082015260048201546040820152600582018054606090920191611f8a90612d26565b80601f0160208091040260200160405190810160405280929190818152602001828054611fb690612d26565b80156120035780601f10611fd857610100808354040283529160200191612003565b820191906000526020600020905b815481529060010190602001808311611fe657829003601f168201915b5050505050815260200160068201805461201c90612d26565b80601f016020809104026020016040519081016040528092919081815260200182805461204890612d26565b80156120955780601f1061206a57610100808354040283529160200191612095565b820191906000526020600020905b81548152906001019060200180831161207857829003601f168201915b505050505081526020016007820180546120ae90612d26565b80601f01602080910402602001604051908101604052809291908181526020018280546120da90612d26565b80156121275780601f106120fc57610100808354040283529160200191612127565b820191906000526020600020905b81548152906001019060200180831161210a57829003601f168201915b505050505081525050905080606001516001600160a01b0316336001600160a01b0316146121885760405162461bcd60e51b815260206004820152600e60248201526d139bdd08105d5d1a1bdc9a5e995960921b6044820152606401610835565b60008281526005602052604090208281556003810184905560018101859055815160028201906121b89082612e1a565b5060e082015160058201906121cd9082612e1a565b5060040180546001600160a01b0319163317905550505050565b600060025460016121f89190612eda565b6000818152600160205260409020909150806122148982612e1a565b50600181018290556002810161222a8882612e1a565b506003810180546001600160a01b0319166001600160a01b038616179055600581016122568782612e1a565b50600681016122658682612e1a565b50600781016122748482612e1a565b5050600255505050505050565b604080516060808201835280825260208201526000918101919091526001600160a01b038216600090815260208190526040908190208151606081019092528054829082906122cf90612d26565b80601f01602080910402602001604051908101604052809291908181526020018280546122fb90612d26565b80156123485780601f1061231d57610100808354040283529160200191612348565b820191906000526020600020905b81548152906001019060200180831161232b57829003601f168201915b5050505050815260200160018201805461236190612d26565b80601f016020809104026020016040519081016040528092919081815260200182805461238d90612d26565b80156123da5780601f106123af576101008083540402835291602001916123da565b820191906000526020600020905b8154815290600101906020018083116123bd57829003601f168201915b5050509183525050600291909101546001600160a01b031660209091015292915050565b50805461240a90612d26565b6000825580601f1061241a575050565b601f0160209004906000526020600020908101906124389190612489565b50565b60405180610100016040528060608152602001600081526020016060815260200160006001600160a01b03168152602001600081526020016060815260200160608152602001606081525090565b5b8082111561249e576000815560010161248a565b5090565b80356001600160a01b03811681146124b957600080fd5b919050565b6000602082840312156124d057600080fd5b6124d9826124a2565b9392505050565b6000815180845260005b81811015612506576020818501810151868301820152016124ea565b506000602082860101526020601f19601f83011685010191505092915050565b60608152600061253960608301866124e0565b828103602084015261254b81866124e0565b91505060018060a01b0383166040830152949350505050565b60006020808301818452808551808352604092508286019150828160051b87010184880160005b8381101561261057603f19898403018552815160c08151855288820151898601528782015181898701526125c1828701826124e0565b606084810151908801526080808501516001600160a01b03169088015260a0938401518782039488019490945291506125fc905081836124e0565b96890196945050509086019060010161258b565b509098975050505050505050565b634e487b7160e01b600052604160045260246000fd5b600082601f83011261264557600080fd5b813567ffffffffffffffff808211156126605761266061261e565b604051601f8301601f19908116603f011681019082821181831017156126885761268861261e565b816040528381528660208588010111156126a157600080fd5b836020870160208301376000602085830101528094505050505092915050565b600080604083850312156126d457600080fd5b82359150602083013567ffffffffffffffff8111156126f257600080fd5b6126fe85828601612634565b9150509250929050565b6000610100825181855261271e828601826124e0565b915050602083015160208501526040830151848203604086015261274282826124e0565b915050606083015161275f60608601826001600160a01b03169052565b506080830151608085015260a083015184820360a086015261278182826124e0565b91505060c083015184820360c086015261279b82826124e0565b91505060e083015184820360e08601526127b582826124e0565b95945050505050565b6000602080830181845280855180835260408601915060408160051b870101925083870160005b8281101561281357603f19888603018452612801858351612708565b945092850192908501906001016127e5565b5092979650505050505050565b6000806040838503121561283357600080fd5b823567ffffffffffffffff8082111561284b57600080fd5b61285786838701612634565b9350602085013591508082111561286d57600080fd5b506126fe85828601612634565b60006020828403121561288c57600080fd5b5035919050565b60c0815260006128a660c08301896124e0565b87602084015282810360408401526128be81886124e0565b905082810360608401526128d281876124e0565b6001600160a01b038616608085015283810360a085015290506128f581856124e0565b9998505050505050505050565b60006101008083526129168184018c6124e0565b90508960208401528281036040840152612930818a6124e0565b6001600160a01b03891660608501526080840188905283810360a0850152905061295a81876124e0565b905082810360c084015261296e81866124e0565b905082810360e084015261298281856124e0565b9b9a5050505050505050505050565b86815285602082015260c0604082015260006129b060c08301876124e0565b606083018690526001600160a01b038516608084015282810360a08401526128f581856124e0565b600080600080608085870312156129ee57600080fd5b843567ffffffffffffffff80821115612a0657600080fd5b612a1288838901612634565b95506020870135915080821115612a2857600080fd5b612a3488838901612634565b94506040870135915080821115612a4a57600080fd5b612a5688838901612634565b93506060870135915080821115612a6c57600080fd5b50612a7987828801612634565b91505092959194509250565b60006020808301818452808551808352604092508286019150828160051b8701018488016000805b84811015612ba657603f198a8503018652825160e08151818752612ad3828801826124e0565b838c0151888d01528a8401518882038c8a01528051808352908d019350869250908c01905b80831015612b215783516001600160a01b03168252928c019260019290920191908c0190612af8565b506060925082840151915087810383890152612b3d81836124e0565b9250505060808083015187830382890152612b5883826124e0565b9250505060a080830151612b76828901826001600160a01b03169052565b505060c08083015192508682038188015250612b9281836124e0565b978a01979550505091870191600101612aad565b50919998505050505050505050565b6020815260006124d96020830184612708565b60008060408385031215612bdb57600080fd5b50508035926020909101359150565b60008060008060008060c08789031215612c0357600080fd5b863567ffffffffffffffff80821115612c1b57600080fd5b612c278a838b01612634565b97506020890135915080821115612c3d57600080fd5b612c498a838b01612634565b96506040890135915080821115612c5f57600080fd5b612c6b8a838b01612634565b95506060890135915080821115612c8157600080fd5b612c8d8a838b01612634565b9450612c9b60808a016124a2565b935060a0890135915080821115612cb157600080fd5b50612cbe89828a01612634565b9150509295509295509295565b602081526000825160606020840152612ce760808401826124e0565b90506020840151601f19848303016040850152612d0482826124e0565b604095909501516001600160a01b031660609490940193909352509192915050565b600181811c90821680612d3a57607f821691505b60208210810361078e57634e487b7160e01b600052602260045260246000fd5b634e487b7160e01b600052601160045260246000fd5b81810381811115612d8357612d83612d5a565b92915050565b634e487b7160e01b600052603260045260246000fd5b600060018201612db157612db1612d5a565b5060010190565b600081612dc757612dc7612d5a565b506000190190565b601f821115612e1557600081815260208120601f850160051c81016020861015612df65750805b601f850160051c820191505b818110156108ed57828155600101612e02565b505050565b815167ffffffffffffffff811115612e3457612e3461261e565b612e4881612e428454612d26565b84612dcf565b602080601f831160018114612e7d5760008415612e655750858301515b600019600386901b1c1916600185901b1785556108ed565b600085815260208120601f198616915b82811015612eac57888601518255948401946001909101908401612e8d565b5085821015612eca5787850151600019600388901b60f8161c191681555b5050505050600190811b01905550565b80820180821115612d8357612d83612d5a56fea26469706673582212204c69cc6acc075d6bf265446ad5a232fbea0394f709cae4e40076bc6a8ecce3e664736f6c63430008140033",
  "linkReferences": {},
  "deployedLinkReferences": {}
}